{
  "contractName": "Migrations",
  "abi": [
    {
      "inputs": [],
      "stateMutability": "nonpayable",
      "type": "constructor"
    },
    {
      "inputs": [],
      "name": "lastupload_migration",
      "outputs": [
        {
          "internalType": "uint256",
          "name": "",
          "type": "uint256"
        }
      ],
      "stateMutability": "view",
      "type": "function"
    },
    {
      "inputs": [],
      "name": "owner",
      "outputs": [
        {
          "internalType": "address",
          "name": "",
          "type": "address"
        }
      ],
      "stateMutability": "view",
      "type": "function"
    },
    {
      "inputs": [
        {
          "internalType": "uint256",
          "name": "done",
          "type": "uint256"
        }
      ],
      "name": "DoneComp",
      "outputs": [],
      "stateMutability": "nonpayable",
      "type": "function"
    },
    {
      "inputs": [
        {
          "internalType": "address",
          "name": "newaddress",
          "type": "address"
        }
      ],
      "name": "upgrade",
      "outputs": [],
      "stateMutability": "nonpayable",
      "type": "function"
    }
  ],
  "bytecode": "0x608060405234801561001057600080fd5b50336000806101000a81548173ffffffffffffffffffffffffffffffffffffffff021916908373ffffffffffffffffffffffffffffffffffffffff160217905550610394806100606000396000f3fe608060405234801561001057600080fd5b506004361061004c5760003560e01c80630900f010146100515780638da5cb5b1461006d578063a782fe0e1461008b578063fbf37d1e146100a7575b600080fd5b61006b6004803603810190610066919061027a565b6100c5565b005b61007561018f565b60405161008291906102b6565b60405180910390f35b6100a560048036038101906100a09190610307565b6101b3565b005b6100af610211565b6040516100bc9190610343565b60405180910390f35b60008054906101000a900473ffffffffffffffffffffffffffffffffffffffff1673ffffffffffffffffffffffffffffffffffffffff163373ffffffffffffffffffffffffffffffffffffffff160361018c5760008190508073ffffffffffffffffffffffffffffffffffffffff1663a782fe0e6001546040518263ffffffff1660e01b81526004016101589190610343565b600060405180830381600087803b15801561017257600080fd5b505af1158015610186573d6000803e3d6000fd5b50505050505b50565b60008054906101000a900473ffffffffffffffffffffffffffffffffffffffff1681565b60008054906101000a900473ffffffffffffffffffffffffffffffffffffffff1673ffffffffffffffffffffffffffffffffffffffff163373ffffffffffffffffffffffffffffffffffffffff160361020e57806001819055505b50565b60015481565b600080fd5b600073ffffffffffffffffffffffffffffffffffffffff82169050919050565b60006102478261021c565b9050919050565b6102578161023c565b811461026257600080fd5b50565b6000813590506102748161024e565b92915050565b6000602082840312156102905761028f610217565b5b600061029e84828501610265565b91505092915050565b6102b08161023c565b82525050565b60006020820190506102cb60008301846102a7565b92915050565b6000819050919050565b6102e4816102d1565b81146102ef57600080fd5b50565b600081359050610301816102db565b92915050565b60006020828403121561031d5761031c610217565b5b600061032b848285016102f2565b91505092915050565b61033d816102d1565b82525050565b60006020820190506103586000830184610334565b9291505056fea2646970667358221220e62e68d643a9734a7430cf25f97b1edd043556ec5f8374bfae0c5d3759785fc364736f6c634300080e0033",
  "immutableReferences": {},
  "source": "// SPDX-License-Identifier: MIT\npragma solidity >=0.4.22 <0.9.0;\ncontract Migrations {\n  address public owner;\n  uint public lastupload_migration;\n\n  modifier restricted() {\n    if (msg.sender == owner) _;\n  }\n\n  constructor() {\n    owner = msg.sender;\n  }\n\n  function DoneComp(uint done) public restricted {\n    lastupload_migration = done;\n  }\n\n  function upgrade(address newaddress) public restricted {\n    Migrations upgraded = Migrations(newaddress);\n    upgraded.DoneComp(lastupload_migration);\n  }\n}",
  "sourcePath": "C:\\Users\\Berfin\\Desktop\\TRUFFLE TEST\\contracts\\Migrations.sol",
  "compiler": {
    "name": "solc",
    "version": "0.8.14+commit.80d49f37.Emscripten.clang"
  },
  "schemaVersion": "3.4.7",
  "updatedAt": "2022-06-24T12:28:22.112Z",
  "devdoc": {
    "kind": "dev",
    "methods": {},
    "version": 1
  },
  "userdoc": {
    "kind": "user",
    "methods": {},
    "version": 1
  }
}