{
  "contractName": "Notary",
  "abi": [
    {
      "inputs": [],
      "stateMutability": "nonpayable",
      "type": "constructor"
    },
    {
      "inputs": [
        {
          "internalType": "bytes32",
          "name": "hash",
          "type": "bytes32"
        }
      ],
      "name": "RegDHash",
      "outputs": [],
      "stateMutability": "nonpayable",
      "type": "function"
    },
    {
      "inputs": [
        {
          "internalType": "bytes32",
          "name": "hash",
          "type": "bytes32"
        }
      ],
      "name": "SearchHash",
      "outputs": [
        {
          "internalType": "uint256",
          "name": "",
          "type": "uint256"
        },
        {
          "internalType": "uint256",
          "name": "",
          "type": "uint256"
        }
      ],
      "stateMutability": "view",
      "type": "function"
    }
  ],
  "bytecode": "0x608060405234801561001057600080fd5b506101e7806100206000396000f3fe608060405234801561001057600080fd5b50600436106100365760003560e01c806317cf30051461003b5780633c1f6d4014610057575b600080fd5b61005560048036038101906100509190610142565b610088565b005b610071600480360381019061006c9190610142565b6100cf565b60405161007f929190610188565b60405180910390f35b600060405180604001604052804281526020014381525090508060008084815260200190815260200160002060008201518160000155602082015181600101559050505050565b600080600080848152602001908152602001600020600001546000808581526020019081526020016000206001015491509150915091565b600080fd5b6000819050919050565b61011f8161010c565b811461012a57600080fd5b50565b60008135905061013c81610116565b92915050565b60006020828403121561015857610157610107565b5b60006101668482850161012d565b91505092915050565b6000819050919050565b6101828161016f565b82525050565b600060408201905061019d6000830185610179565b6101aa6020830184610179565b939250505056fea2646970667358221220f9bd6adbb4c87e6418ba866fd159dd486c7e761d1cf834b3df2d0d4a44c16c3764736f6c634300080e0033",
  "immutableReferences": {},
  "source": "// SPDX-License-Identifier: MIT\r\npragma solidity >=0.4.22 <0.9.0;\r\n\r\ncontract Notary {\r\nstruct Record {\r\n    uint timestamp;\r\n    uint blockNumber;\r\n  }\r\nmapping (bytes32 => Record) private file_hash;\r\nconstructor ()  {\r\n}\r\nfunction RegDHash (bytes32 hash) public {\r\n    Record memory newrec = Record(block.timestamp, block.number);\r\n    file_hash[hash] = newrec;\r\n  }\r\nfunction SearchHash (bytes32 hash) public view returns(uint, uint) {\r\n    return (file_hash[hash].timestamp, file_hash[hash].blockNumber);\r\n  }\r\n}",
  "sourcePath": "C:\\Users\\Berfin\\Desktop\\TRUFFLE TEST\\contracts\\Notary.sol",
  "compiler": {
    "name": "solc",
    "version": "0.8.14+commit.80d49f37.Emscripten.clang"
  },
  "schemaVersion": "3.4.7",
  "updatedAt": "2022-06-24T12:28:22.118Z",
  "devdoc": {
    "kind": "dev",
    "methods": {},
    "version": 1
  },
  "userdoc": {
    "kind": "user",
    "methods": {},
    "version": 1
  }
}